{
  "contractName": "DShop",
  "abi": [
    {
      "anonymous": false,
      "inputs": [
        {
          "indexed": false,
          "internalType": "uint256",
          "name": "productId",
          "type": "uint256"
        },
        {
          "indexed": false,
          "internalType": "string",
          "name": "productHash",
          "type": "string"
        },
        {
          "indexed": false,
          "internalType": "string",
          "name": "productName",
          "type": "string"
        },
        {
          "indexed": false,
          "internalType": "string",
          "name": "productDescription",
          "type": "string"
        },
        {
          "indexed": false,
          "internalType": "uint256",
          "name": "productPrice",
          "type": "uint256"
        },
        {
          "indexed": false,
          "internalType": "uint256",
          "name": "uploadTime",
          "type": "uint256"
        },
        {
          "indexed": false,
          "internalType": "address payable",
          "name": "productOwner",
          "type": "address"
        }
      ],
      "name": "ProductUploaded",
      "type": "event"
    },
    {
      "inputs": [],
      "name": "productCounter",
      "outputs": [
        {
          "internalType": "uint256",
          "name": "",
          "type": "uint256"
        }
      ],
      "stateMutability": "view",
      "type": "function",
      "constant": true
    },
    {
      "inputs": [
        {
          "internalType": "uint256",
          "name": "",
          "type": "uint256"
        }
      ],
      "name": "products",
      "outputs": [
        {
          "internalType": "uint256",
          "name": "productId",
          "type": "uint256"
        },
        {
          "internalType": "string",
          "name": "productHash",
          "type": "string"
        },
        {
          "internalType": "string",
          "name": "productName",
          "type": "string"
        },
        {
          "internalType": "string",
          "name": "productDescription",
          "type": "string"
        },
        {
          "internalType": "uint256",
          "name": "productPrice",
          "type": "uint256"
        },
        {
          "internalType": "uint256",
          "name": "uploadTime",
          "type": "uint256"
        },
        {
          "internalType": "address payable",
          "name": "productOwner",
          "type": "address"
        }
      ],
      "stateMutability": "view",
      "type": "function",
      "constant": true
    },
    {
      "inputs": [
        {
          "internalType": "string",
          "name": "_productHash",
          "type": "string"
        },
        {
          "internalType": "string",
          "name": "_productName",
          "type": "string"
        },
        {
          "internalType": "string",
          "name": "_productDescription",
          "type": "string"
        },
        {
          "internalType": "uint256",
          "name": "_productPrice",
          "type": "uint256"
        }
      ],
      "name": "uploadProduct",
      "outputs": [],
      "stateMutability": "nonpayable",
      "type": "function"
    }
  ],
  "bytecode": "0x60806040526000805534801561001457600080fd5b50610a01806100246000396000f3fe608060405234801561001057600080fd5b50600436106100415760003560e01c80631f16653b146100465780636a937074146100645780637acc0b2014610080575b600080fd5b61004e6100b6565b60405161005b91906106c7565b60405180910390f35b61007e60048036038101906100799190610588565b6100bc565b005b61009a60048036038101906100959190610643565b610266565b6040516100ad97969594939291906106e2565b60405180910390f35b60005481565b60008451116100ca57600080fd5b60008351116100d857600080fd5b60008251116100e657600080fd5b6000808154809291906100f8906108b9565b91905055506040518060e0016040528060005481526020018581526020018481526020018381526020018281526020014281526020013373ffffffffffffffffffffffffffffffffffffffff168152506001600080548152602001908152602001600020600082015181600001556020820151816001019080519060200190610182929190610460565b50604082015181600201908051906020019061019f929190610460565b5060608201518160030190805190602001906101bc929190610460565b506080820151816004015560a0820151816005015560c08201518160060160006101000a81548173ffffffffffffffffffffffffffffffffffffffff021916908373ffffffffffffffffffffffffffffffffffffffff1602179055509050507fadba73793d23cc448dfbd126acf08f33e8d345577897d1d0c6230eb6809449d660005485858585423360405161025897969594939291906106e2565b60405180910390a150505050565b600160205280600052604060002060009150905080600001549080600101805461028f90610856565b80601f01602080910402602001604051908101604052809291908181526020018280546102bb90610856565b80156103085780601f106102dd57610100808354040283529160200191610308565b820191906000526020600020905b8154815290600101906020018083116102eb57829003601f168201915b50505050509080600201805461031d90610856565b80601f016020809104026020016040519081016040528092919081815260200182805461034990610856565b80156103965780601f1061036b57610100808354040283529160200191610396565b820191906000526020600020905b81548152906001019060200180831161037957829003601f168201915b5050505050908060030180546103ab90610856565b80601f01602080910402602001604051908101604052809291908181526020018280546103d790610856565b80156104245780601f106103f957610100808354040283529160200191610424565b820191906000526020600020905b81548152906001019060200180831161040757829003601f168201915b5050505050908060040154908060050154908060060160009054906101000a900473ffffffffffffffffffffffffffffffffffffffff16905087565b82805461046c90610856565b90600052602060002090601f01602090048101928261048e57600085556104d5565b82601f106104a757805160ff19168380011785556104d5565b828001600101855582156104d5579182015b828111156104d45782518255916020019190600101906104b9565b5b5090506104e291906104e6565b5090565b5b808211156104ff5760008160009055506001016104e7565b5090565b60006105166105118461078b565b610766565b90508281526020810184848401111561053257610531610994565b5b61053d848285610814565b509392505050565b600082601f83011261055a5761055961098f565b5b813561056a848260208601610503565b91505092915050565b600081359050610582816109b4565b92915050565b600080600080608085870312156105a2576105a161099e565b5b600085013567ffffffffffffffff8111156105c0576105bf610999565b5b6105cc87828801610545565b945050602085013567ffffffffffffffff8111156105ed576105ec610999565b5b6105f987828801610545565b935050604085013567ffffffffffffffff81111561061a57610619610999565b5b61062687828801610545565b925050606061063787828801610573565b91505092959194509250565b6000602082840312156106595761065861099e565b5b600061066784828501610573565b91505092915050565b610679816107d8565b82525050565b600061068a826107bc565b61069481856107c7565b93506106a4818560208601610823565b6106ad816109a3565b840191505092915050565b6106c18161080a565b82525050565b60006020820190506106dc60008301846106b8565b92915050565b600060e0820190506106f7600083018a6106b8565b8181036020830152610709818961067f565b9050818103604083015261071d818861067f565b90508181036060830152610731818761067f565b905061074060808301866106b8565b61074d60a08301856106b8565b61075a60c0830184610670565b98975050505050505050565b6000610770610781565b905061077c8282610888565b919050565b6000604051905090565b600067ffffffffffffffff8211156107a6576107a5610960565b5b6107af826109a3565b9050602081019050919050565b600081519050919050565b600082825260208201905092915050565b60006107e3826107ea565b9050919050565b600073ffffffffffffffffffffffffffffffffffffffff82169050919050565b6000819050919050565b82818337600083830152505050565b60005b83811015610841578082015181840152602081019050610826565b83811115610850576000848401525b50505050565b6000600282049050600182168061086e57607f821691505b6020821081141561088257610881610931565b5b50919050565b610891826109a3565b810181811067ffffffffffffffff821117156108b0576108af610960565b5b80604052505050565b60006108c48261080a565b91507fffffffffffffffffffffffffffffffffffffffffffffffffffffffffffffffff8214156108f7576108f6610902565b5b600182019050919050565b7f4e487b7100000000000000000000000000000000000000000000000000000000600052601160045260246000fd5b7f4e487b7100000000000000000000000000000000000000000000000000000000600052602260045260246000fd5b7f4e487b7100000000000000000000000000000000000000000000000000000000600052604160045260246000fd5b600080fd5b600080fd5b600080fd5b600080fd5b6000601f19601f8301169050919050565b6109bd8161080a565b81146109c857600080fd5b5056fea264697066735822122049e109587c71b7f5cdd774c35b127b2c7c549fc8659adfb0ddcfe013b1114c0564736f6c63430008060033",
  "immutableReferences": {},
  "source": "// SPDX-License-Identifier: MIT\npragma solidity ^0.8.6;\n\ncontract DShop {\n  uint public productCounter = 0;\n\n  struct Product{\n    uint productId;\n    string productHash;\n    string productName;\n    string productDescription;\n    uint productPrice;\n    uint uploadTime;\n    address payable productOwner;\n  }\n\n  event ProductUploaded(\n    uint productId,\n    string productHash,\n    string productName,\n    string productDescription,\n    uint productPrice,\n    uint uploadTime,\n    address payable productOwner\n  );\n\n  mapping(uint => Product) public products;\n\n  function uploadProduct(string memory _productHash, string memory _productName,\n                         string memory _productDescription, uint _productPrice) external{\n    require(bytes(_productHash).length > 0);\n    require(bytes(_productName).length > 0);\n    require(bytes(_productDescription).length > 0);\n\n    productCounter ++;\n\n    products[productCounter] = Product(productCounter, _productHash, _productName, _productDescription,\n                                       _productPrice, block.timestamp, payable(msg.sender));\n                                       \n    emit ProductUploaded(productCounter, _productHash, _productName, _productDescription, _productPrice, block.timestamp, payable(msg.sender));\n  }\n\n}\n",
  "sourcePath": "/home/mario/Dev/d-shop/src/contracts/DShop.sol",
  "compiler": {
    "name": "solc",
    "version": "0.8.6+commit.11564f7e.Emscripten.clang"
  },
  "schemaVersion": "3.4.3",
  "updatedAt": "2021-09-29T17:46:34.757Z",
  "networkType": "ethereum",
  "devdoc": {
    "kind": "dev",
    "methods": {},
    "version": 1
  },
  "userdoc": {
    "kind": "user",
    "methods": {},
    "version": 1
  }
}